:100000000C9462000C948A000C948A000C948A0070
:100010000C948A000C948A000C948A000C948A0038
:100020000C948A000C948A000C948A000C94350479
:100030000C948A000C948A000C948A000C948A0018
:100040000C9493030C948A000C9403040C94DD0329
:100050000C948A000C948A000C948A000C948A00F8
:100060000C948A000C948A000000000024002700F1
:100070002A0000000000250028002B0000000000DE
:1000800023002600290004040404040404040202DA
:100090000202020203030303030301020408102007
:1000A0004080010204081020010204081020000012
:1000B0000008000201000003040700000000000027
:1000C0000000F10411241FBECFEFD8E0DEBFCDBF8A
:1000D00012E0A0E0B1E0E4EEFFE002C005900D9276
:1000E000A63BB107D9F723E0A6EBB2E001C01D9211
:1000F000A638B207E1F710E0C2E6D0E004C02197CD
:10010000FE010E94EA07C136D107C9F70E944E05D9
:100110000C94F0070C9400008F929F92AF92BF92C4
:10012000FF920F931F93CF93DF93F09083032BE005
:100130002F1508F44CC02091850308E512E0021B3E
:10014000110927FD1395000F111F000F111F20919A
:100150008403C8E8D0E0C21BD10927FDD395CC0F9A
:10016000DD1FCC0FDD1F4E010D2E000CAA08BB08B1
:100170009801012E000C440B550B281939094A0926
:100180005B09DC010E94A50724EB30E040E050E071
:100190000E947B07820E931EA41EB51E8C169D0620
:1001A0002CF0E801801691060CF4E4012297CC0FA4
:1001B000DD1F2FB7F8948F2D90E0FC01EE0FFF1F8D
:1001C000E80FF91FE25AFC4FD283C1832FBFDF91A2
:1001D000CF911F910F91FF90BF90AF909F908F9004
:1001E0000895833081F028F4813099F08230A9F0AD
:1001F00008958730A9F08830C9F08430B1F4809137
:1002000080008F7D03C0809180008F778093800075
:10021000089584B58F7784BD089584B58F7DFBCF15
:100220008091B0008F778093B00008958091B000E6
:100230008F7DF9CFCF93DF93282F30E0F901E2557E
:10024000FF4F8491F901E656FF4FD491F901EA5727
:10025000FF4FC491CC23A1F081110E94F100EC2F3B
:10026000F0E0EE0FFF1FE458FF4FA591B491EC9121
:10027000ED2381E090E009F480E0DF91CF910895D3
:1002800080E090E0FACF1F93CF93DF93282F30E0E8
:10029000F901E255FF4F8491F901E656FF4FD491E1
:1002A000F901EA57FF4FC491CC23A9F0162F811111
:1002B0000E94F100EC2FF0E0EE0FFF1FEE58FF4F11
:1002C000A591B4918FB7F894EC91111108C0D09515
:1002D000DE23DC938FBFDF91CF911F910895DE2B3A
:1002E000F8CFCF93DF9390E0FC01E656FF4F2491C7
:1002F0008A579F4FFC0184918823C9F090E0880FB2
:10030000991FFC01E859FF4FA591B491FC01EE58EB
:10031000FF4FC591D49161110DC09FB7F8948C9196
:10032000209582238C938881282328839FBFDF9187
:10033000CF910895623051F49FB7F8943C91822F89
:10034000809583238C93E8812E2BEFCF8FB7F89481
:10035000EC912E2B2C938FBFEACF3FB7F89480916E
:10036000BD029091BE02A091BF02B091C00226B51D
:10037000A89B05C02F3F19F00196A11DB11D3FBFDD
:10038000BA2FA92F982F8827BC01CD01620F711DAC
:10039000811D911D42E0660F771F881F991F4A95A6
:1003A000D1F708958F929F92AF92BF92CF92DF9232
:1003B000EF92FF924B015C010E94AD016B017C0149
:1003C0000E94AD016C197D098E099F09683E73403A
:1003D00081059105A8F321E0821A9108A108B108CE
:1003E00088EEC80E83E0D81EE11CF11C8114910434
:1003F000A104B10429F7FF90EF90DF90CF90BF9058
:10040000AF909F908F900895AF92BF92CF92DF925E
:10041000EF92FF920F931F93CF93DF936C017B01B9
:100420008B01040F151FEB015E01AE18BF08C0174A
:10043000D10759F06991D601ED91FC910190F081BD
:10044000E02DC6010995892B79F7C501DF91CF9180
:100450001F910F91FF90EF90DF90CF90BF90AF90E2
:100460000895FC01538D448D252F30E0842F90E0BA
:10047000821B930B541710F0CF960895019708959F
:10048000FC01918D828D981761F0A28DAE0FBF2F68
:10049000B11D5D968C91928D9F5F9F73928F90E0BE
:1004A00008958FEF9FEF0895FC01918D828D98172D
:1004B00031F0828DE80FF11D858D90E008958FEF6A
:1004C0009FEF0895FC01918D228D892F90E0805C33
:1004D0009F4F821B91098F739927089581EC92E0B9
:1004E0000E94620221E0892B09F420E0822F089506
:1004F00080E090E0892B29F00E946E0281110C941B
:1005000000000895FC01A48DA80FB92FB11DA35AB6
:10051000BF4F2C91848D90E001968F739927848F23
:10052000A689B7892C93A089B1898C918370806446
:100530008C93938D848D981306C00288F389E02DE7
:1005400080818F7D80830895EF92FF920F931F9398
:10055000CF93DF93EC0181E0888F9B8D8C8D981376
:100560001AC0E889F989808185FF15C09FB7F89482
:10057000EE89FF896083E889F989808183708064CE
:1005800080839FBF81E090E0DF91CF911F910F9119
:10059000FF90EF900895F62E0B8D10E00F5F1F4F28
:1005A0000F731127E02E8C8D8E110CC00FB607FC37
:1005B000FACFE889F989808185FFF5CFCE010E94C5
:1005C0008202F1CFEB8DEC0FFD2FF11DE35AFF4FAF
:1005D000F0829FB7F8940B8FEA89FB898081806253
:1005E000CFCFCF93DF93EC01888D8823B9F0AA8910
:1005F000BB89E889F9898C9185FD03C0808186FDDE
:100600000DC00FB607FCF7CF8C9185FFF2CF80812C
:1006100085FFEDCFCE010E948202E9CFDF91CF911D
:100620000895FC0101900020E9F73197AF01481BC4
:10063000590BBC0181EC92E00C9404028F929F92C2
:10064000AF92BF920F931F93CF93DF93CDB7DEB7D7
:10065000A1970FB6F894DEBF0FBECDBF19A24230EE
:1006600008F44AE08E010F5D1F4F842E912CB12CAF
:10067000A12CA50194010E94AD07E62FB901CA0182
:10068000EA30F4F4E05DD801EE938D01232B242BA6
:10069000252B79F790E080E0109719F0CD010E94AA
:1006A0001103A1960FB6F894DEBF0FBECDBFDF9148
:1006B000CF911F910F91BF90AF909F908F90089511
:1006C000E95CE1CFCF92DF92EF92FF92CF93DF937D
:1006D0006B017C016DE281EC92E00E94A402EC01CE
:1006E00066277727CB016C197D098E099F094AE09F
:1006F0000E941E038C0F9D1FDF91CF91FF90EF9002
:10070000DF90CF900895CF93DF930E941103EC0107
:1007100086E191E00E9411038C0F9D1FDF91CF9124
:1007200008950C9411031F920F920FB60F9211248B
:100730002F933F938F939F93AF93BF938091B90271
:100740009091BA02A091BB02B091BC023091B80264
:1007500023E0230F2D3758F50196A11DB11D2093DD
:10076000B8028093B9029093BA02A093BB02B093EF
:10077000BC028091BD029091BE02A091BF02B091D7
:10078000C0020196A11DB11D8093BD029093BE02CF
:10079000A093BF02B093C002BF91AF919F918F9180
:1007A0003F912F910F900FBE0F901F90189526E844
:1007B000230F0296A11DB11DD2CF1F920F920FB62B
:1007C0000F9211242F933F934F935F936F937F93D7
:1007D0008F939F93AF93BF93EF93FF9381EC92E03E
:1007E0000E948202FF91EF91BF91AF919F918F91F3
:1007F0007F916F915F914F913F912F910F900FBE1D
:100800000F901F9018951F920F920FB60F92112400
:100810002F938F939F93EF93FF93E091D102F091E9
:10082000D2028081E091D702F091D80282FD1BC0F4
:1008300090818091DA028F5F8F732091DB028217A3
:1008400041F0E091DA02F0E0EF53FD4F958F809395
:10085000DA02FF91EF919F918F912F910F900FBE30
:100860000F901F9018958081F4CF1F920F920FB6B2
:100870000F9211242F933F934F935F936F937F9326
:100880008F939F93AF93BF93CF93DF93EF93FF9398
:100890008091B602C0918203D0E087FF24C01092FD
:1008A0008500109284008091B6028F5F8093B6021B
:1008B0008091B602082E000C990B8C179D0724F42A
:1008C0008091B6028C30C4F18091840090918500B3
:1008D000049680349C4908F47AC0809184009091F9
:1008E0008500049676C08091B602082E000C990B04
:1008F0008C179D07C4F6E091B6028E2FEE0F990B70
:10090000FC01EE0FFF1FE80FF91FE25AFC4F808138
:1009100086FFC9CFE091B6028E2FEE0F990BFC0136
:10092000EE0FFF1FE80FF91FE25AFC4F808160E0D5
:100930008F730E944301B7CF2091840030918500CE
:10094000E091B6028E2FEE0F990BFC01EE0FFF1F08
:10095000E80FF91FE25AFC4F81819281820F931FA9
:100960009093890080938800E091B6028E2FEE0F5D
:10097000990BFC01EE0FFF1FE80FF91FE25AFC4F25
:10098000808186FF11C0E091B6028E2FEE0F990B89
:10099000FC01EE0FFF1FE80FF91FE25AFC4F8081A8
:1009A00061E08F730E944301FF91EF91DF91CF913E
:1009B000BF91AF919F918F917F916F915F914F9177
:1009C0003F912F910F900FBE0F901F90189580E4CC
:1009D0009CE990938900809388008FEF8093B60202
:1009E000E3CF1092C4021092C30288EE93E0A0E01D
:1009F000B0E08093C5029093C602A093C702B09363
:100A0000C80288E091E09093C2028093C10285EC15
:100A100090E09093CE028093CD0284EC90E090938E
:100A2000D0028093CF0280EC90E09093D20280932A
:100A3000D10281EC90E09093D4028093D30282ECB7
:100A400090E09093D6028093D50286EC90E090934C
:100A5000D8028093D7021092DA021092DB02109231
:100A6000DC021092DD02809182038C3098F491E0D8
:100A7000980F909382038093830390E0FC01EE0F24
:100A8000FF1FE80FF91FE25AFC4F88EB9BE09283AF
:100A9000818308958FEF809383030895789484B5BC
:100AA000826084BD84B5816084BD85B5826085BD6A
:100AB00085B5816085BD80916E00816080936E00F8
:100AC00010928100809181008260809381008091EA
:100AD000810081608093810080918000816080939B
:100AE00080008091B10084608093B1008091B0005B
:100AF00081608093B00080917A00846080937A0056
:100B000080917A00826080937A0080917A0081607F
:100B100080937A0080917A00806880937A001092A6
:100B2000C100E091D102F091D20282E08083E09195
:100B3000CD02F091CE021082E091CF02F091D0026E
:100B40008FEC80831092D902E091D502F091D60209
:100B500086E08083E091D302F091D40280818061AD
:100B60008083E091D302F091D402808188608083F9
:100B7000E091D302F091D402808180688083E0917B
:100B8000D302F091D40280818F7D808361E08CE07C
:100B90000E94710160E08BE00E94710160E08FE0D3
:100BA0000E94710161E08DE00E94710161E082E0CC
:100BB0000E94710161E088E00E94710162E087E0BB
:100BC0000E947101809183038C3008F051C061E074
:100BD00086E00E94710180918303282F30E0F901A3
:100BE000EE0FFF1FE20FF31FE25AFC4F9081907C43
:100BF0009660908310928403109285032CE0622FFC
:100C00000E94DE07829FB001112430E020E0AB019A
:100C1000420F531FFA01EE0FFF1FE40FF51FE25AB8
:100C2000FC4F908196FD16C02F5F3F4F2C30310551
:100C300071F781110FC01092800082E080938100D3
:100C40001092850010928400B19A80916F008260AA
:100C500080936F00E09183038E2F90E0FC01EE0FF4
:100C6000FF1FE80FF91FE25AFC4F808180648083E8
:100C700090E080E00E948C0060E08DE00E944301E3
:100C800060E082E00E94430161E088E00E9443014D
:100C900081E291E00E9483038DE491E00E9483034E
:100CA00081E291E00E94830389E791E00E9483033F
:100CB00088EA91E00E94830386EC91E00E9483031E
:100CC00081E291E00E94830388E191E00E94830326
:100CD00081E4A82E9924939400E010E0BB24B394FF
:100CE000A0927C0080917A00806480937A00809149
:100CF0007A0086FDFCCFC0917800D0917900809178
:100D00000201909103016C01092E000CEE08FF080E
:100D100020910101222309F4B1C0029790930301AD
:100D2000809302010B9714F410920101C13981E004
:100D3000D8070CF4AFC061E08DE00E94430161E090
:100D400082E00E94430161E08BE0C816D104E10417
:100D5000F1040CF460E088E00E94430187E00E9407
:100D60001A01009709F0ABC08091B702811128C029
:100D7000B092B702809100018925809300018823F9
:100D800009F48EC090E080E00E948C0088E191E040
:100D90000E94830386EE91E00E9483038CE092E040
:100DA0000E9483038BE192E00E94830388E191E03B
:100DB0000E9483036CE271E080E090E00E94D20127
:100DC00086E792E00E949103F7FE7FC0C701B6015B
:100DD0000E94620381E892E00E949103BE01DD0F50
:100DE000880B990B97FF77C00E9462038DE892E011
:100DF0000E9491038DE00E941A01892B09F06FC0B7
:100E00008DE191E00E94910386E992E00E949103B6
:100E100082E00E941A01892B09F064C08DE191E003
:100E20000E94910382EA92E00E94910388E00E946E
:100E30001A01892B09F059C08DE191E00E949103BC
:100E40008CEA92E00E94910380910001811150C0D0
:100E50008DE692E00E94830364EF71E080E090E011
:100E60000E94D2010115110509F43ACF0E946E02C9
:100E7000882309F435CF0E94000032CF0296909368
:100E8000030180930201803591050CF44FCFB0929D
:100E900001014CCF60E08DE00E94430160E050CF43
:100EA00084EB90E00E948C0088E191E00E94830333
:100EB0008FE392E00E94830385E692E071CF019771
:100EC00009F07ECF1092B7027BCF4AE0C701B6018E
:100ED0000E941E037FCF4AE00E941E0387CF89E154
:100EE00091E090CF89E191E09BCF89E191E0A6CF9D
:100EF00084E192E0AFCF052E97FB1EF400940E9490
:100F0000920757FD07D00E94AD0707FC03D04EF4AF
:100F10000C94920750954095309521953F4F4F4F37
:100F20005F4F089590958095709561957F4F8F4F95
:100F30009F4F08950E94CF07A59F900DB49F900DDD
:100F4000A49F800D911D11240895B7FF0C949A075A
:100F50000E949A07821B930B0895A1E21A2EAA1BE6
:100F6000BB1BFD010DC0AA1FBB1FEE1FFF1FA21759
:100F7000B307E407F50720F0A21BB30BE40BF50B56
:100F8000661F771F881F991F1A9469F760957095DF
:100F9000809590959B01AC01BD01CF010895A29F62
:100FA000B001B39FC001A39F700D811D1124911D3D
:100FB000B29F700D811D1124911D0895991B79E038
:100FC00004C0991F961708F0961B881F7A95C9F7D9
:100FD00080950895EE0FFF1F0590F491E02D099480
:040FE000F894FFCFB3
:100FE4000101500000000000A40204023102F102D9
:100FF4006202400254020D0A004F4E20004F464642
:10100400003D3D3D3D3D3D3D3D3D3D3D3D3D3D3D49
:101014003D3D3D3D3D3D3D3D3D3D3D3D3D3D3D3DFC
:101024003D3D3D3D3D3D3D3D3D3D3D3D0020202080
:101034002020202020534D41525420484F4D45201C
:101044004155544F4D4154494F4E205359535445E3
:101054004D202020202020200047617320546872F6
:101064006573686F6C643A20343030207C204469A6
:101074007374616E6365205468726573686F6C6421
:101084003A20313020636D0050756D70204F4E2032
:101094007768656E2064697374616E6365203E20B1
:1010A400313020636D0050756D70204F46462077B7
:1010B40068656E2064697374616E6365203C3D20CD
:1010C400313020636D00F09F9492203D3D3D3D3DC5
:1010D4003D3D3D3D3D3D3D3D3D3D3D3D3D3D3D3D3C
:1010E4003D3D3D3D3D3D3D3D3D3D3D0020202044B9
:1010F4004F4F52204C4F434B4544002020203D3D50
:101104003D3D3D3D3D3D3D3D3D3D3D3D3D3D3D3D0B
:101114003D3D3D3D3D3D3D3D3D3D3D3D3D3D00F085
:101124009F9493203D3D3D3D3D3D3D3D3D3D3D3DF9
:101134003D3D3D3D3D3D3D3D3D3D3D3D3D3D3D3DDB
:101144003D3D3D3D00202020444F4F5220554E4C04
:101154004F434B45440044697374616E63653A20A0
:101164000020636D207C204761733A2000207C209E
:101174004C45443A2000207C2042757A7A65723AC4
:101184002000207C2050756D703A2000207C204483
:061194006F6F723A2000AB
:00000001FF
